{
  "contractName": "BookingContract",
  "abi": [
    {
      "inputs": [],
      "name": "bookingCount",
      "outputs": [
        {
          "internalType": "uint256",
          "name": "",
          "type": "uint256"
        }
      ],
      "stateMutability": "view",
      "type": "function",
      "constant": true
    },
    {
      "inputs": [
        {
          "internalType": "uint256",
          "name": "",
          "type": "uint256"
        }
      ],
      "name": "bookingList",
      "outputs": [
        {
          "internalType": "uint256",
          "name": "bookingNo",
          "type": "uint256"
        },
        {
          "internalType": "string",
          "name": "documentNo",
          "type": "string"
        },
        {
          "internalType": "string",
          "name": "receiver",
          "type": "string"
        },
        {
          "internalType": "string",
          "name": "locker",
          "type": "string"
        },
        {
          "internalType": "string",
          "name": "booker",
          "type": "string"
        },
        {
          "internalType": "bool",
          "name": "collected",
          "type": "bool"
        }
      ],
      "stateMutability": "view",
      "type": "function",
      "constant": true
    },
    {
      "inputs": [
        {
          "internalType": "string",
          "name": "_documentNo",
          "type": "string"
        },
        {
          "internalType": "string",
          "name": "_receiver",
          "type": "string"
        },
        {
          "internalType": "string",
          "name": "_locker",
          "type": "string"
        },
        {
          "internalType": "string",
          "name": "_booker",
          "type": "string"
        }
      ],
      "name": "registerNewBooking",
      "outputs": [],
      "stateMutability": "nonpayable",
      "type": "function"
    },
    {
      "inputs": [
        {
          "internalType": "uint256",
          "name": "_bookingNo",
          "type": "uint256"
        },
        {
          "internalType": "string",
          "name": "_documentNo",
          "type": "string"
        },
        {
          "internalType": "string",
          "name": "_receiver",
          "type": "string"
        },
        {
          "internalType": "string",
          "name": "_locker",
          "type": "string"
        },
        {
          "internalType": "string",
          "name": "_booker",
          "type": "string"
        }
      ],
      "name": "collected",
      "outputs": [],
      "stateMutability": "nonpayable",
      "type": "function"
    }
  ],
  "bytecode": "0x608060405234801561001057600080fd5b50610bb5806100206000396000f3fe608060405234801561001057600080fd5b506004361061004c5760003560e01c80633e609b3914610051578063573129681461006d5780636d75917214610089578063a06a1f69146100a7575b600080fd5b61006b60048036038101906100669190610737565b6100dc565b005b61008760048036038101906100829190610844565b6101e1565b005b6100916102cb565b60405161009e919061093e565b60405180910390f35b6100c160048036038101906100bc9190610959565b6102d1565b6040516100d396959493929190610a29565b60405180910390f35b600160008154809291906100ef90610ad5565b91905055506040518060c00160405280600154815260200185815260200184815260200183815260200182815260200160001515815250600080600154815260200190815260200160002060008201518160000155602082015181600101908051906020019061016092919061053a565b50604082015181600201908051906020019061017d92919061053a565b50606082015181600301908051906020019061019a92919061053a565b5060808201518160040190805190602001906101b792919061053a565b5060a08201518160050160006101000a81548160ff02191690831515021790555090505050505050565b6040518060c001604052808681526020018581526020018481526020018381526020018281526020016001151581525060008087815260200190815260200160002060008201518160000155602082015181600101908051906020019061024992919061053a565b50604082015181600201908051906020019061026692919061053a565b50606082015181600301908051906020019061028392919061053a565b5060808201518160040190805190602001906102a092919061053a565b5060a08201518160050160006101000a81548160ff0219169083151502179055509050505050505050565b60015481565b60006020528060005260406000206000915090508060000154908060010180546102fa90610b4d565b80601f016020809104026020016040519081016040528092919081815260200182805461032690610b4d565b80156103735780601f1061034857610100808354040283529160200191610373565b820191906000526020600020905b81548152906001019060200180831161035657829003601f168201915b50505050509080600201805461038890610b4d565b80601f01602080910402602001604051908101604052809291908181526020018280546103b490610b4d565b80156104015780601f106103d657610100808354040283529160200191610401565b820191906000526020600020905b8154815290600101906020018083116103e457829003601f168201915b50505050509080600301805461041690610b4d565b80601f016020809104026020016040519081016040528092919081815260200182805461044290610b4d565b801561048f5780601f106104645761010080835404028352916020019161048f565b820191906000526020600020905b81548152906001019060200180831161047257829003601f168201915b5050505050908060040180546104a490610b4d565b80601f01602080910402602001604051908101604052809291908181526020018280546104d090610b4d565b801561051d5780601f106104f25761010080835404028352916020019161051d565b820191906000526020600020905b81548152906001019060200180831161050057829003601f168201915b5050505050908060050160009054906101000a900460ff16905086565b82805461054690610b4d565b90600052602060002090601f01602090048101928261056857600085556105af565b82601f1061058157805160ff19168380011785556105af565b828001600101855582156105af579182015b828111156105ae578251825591602001919060010190610593565b5b5090506105bc91906105c0565b5090565b5b808211156105d95760008160009055506001016105c1565b5090565b6000604051905090565b600080fd5b600080fd5b600080fd5b600080fd5b6000601f19601f8301169050919050565b7f4e487b7100000000000000000000000000000000000000000000000000000000600052604160045260246000fd5b610644826105fb565b810181811067ffffffffffffffff821117156106635761066261060c565b5b80604052505050565b60006106766105dd565b9050610682828261063b565b919050565b600067ffffffffffffffff8211156106a2576106a161060c565b5b6106ab826105fb565b9050602081019050919050565b82818337600083830152505050565b60006106da6106d584610687565b61066c565b9050828152602081018484840111156106f6576106f56105f6565b5b6107018482856106b8565b509392505050565b600082601f83011261071e5761071d6105f1565b5b813561072e8482602086016106c7565b91505092915050565b60008060008060808587031215610751576107506105e7565b5b600085013567ffffffffffffffff81111561076f5761076e6105ec565b5b61077b87828801610709565b945050602085013567ffffffffffffffff81111561079c5761079b6105ec565b5b6107a887828801610709565b935050604085013567ffffffffffffffff8111156107c9576107c86105ec565b5b6107d587828801610709565b925050606085013567ffffffffffffffff8111156107f6576107f56105ec565b5b61080287828801610709565b91505092959194509250565b6000819050919050565b6108218161080e565b811461082c57600080fd5b50565b60008135905061083e81610818565b92915050565b600080600080600060a086880312156108605761085f6105e7565b5b600061086e8882890161082f565b955050602086013567ffffffffffffffff81111561088f5761088e6105ec565b5b61089b88828901610709565b945050604086013567ffffffffffffffff8111156108bc576108bb6105ec565b5b6108c888828901610709565b935050606086013567ffffffffffffffff8111156108e9576108e86105ec565b5b6108f588828901610709565b925050608086013567ffffffffffffffff811115610916576109156105ec565b5b61092288828901610709565b9150509295509295909350565b6109388161080e565b82525050565b6000602082019050610953600083018461092f565b92915050565b60006020828403121561096f5761096e6105e7565b5b600061097d8482850161082f565b91505092915050565b600081519050919050565b600082825260208201905092915050565b60005b838110156109c05780820151818401526020810190506109a5565b838111156109cf576000848401525b50505050565b60006109e082610986565b6109ea8185610991565b93506109fa8185602086016109a2565b610a03816105fb565b840191505092915050565b60008115159050919050565b610a2381610a0e565b82525050565b600060c082019050610a3e600083018961092f565b8181036020830152610a5081886109d5565b90508181036040830152610a6481876109d5565b90508181036060830152610a7881866109d5565b90508181036080830152610a8c81856109d5565b9050610a9b60a0830184610a1a565b979650505050505050565b7f4e487b7100000000000000000000000000000000000000000000000000000000600052601160045260246000fd5b6000610ae08261080e565b91507fffffffffffffffffffffffffffffffffffffffffffffffffffffffffffffffff821415610b1357610b12610aa6565b5b600182019050919050565b7f4e487b7100000000000000000000000000000000000000000000000000000000600052602260045260246000fd5b60006002820490506001821680610b6557607f821691505b60208210811415610b7957610b78610b1e565b5b5091905056fea2646970667358221220e680136abe6a1292a34b46cd636ce8656426cffb2cdee1b3df53f7ad74acb45d64736f6c634300080c0033",
  "immutableReferences": {},
  "source": "// SPDX-License-Identifier: GPL-3.0\n\npragma solidity 0.8.12;\n\ncontract BookingContract {\n    \n    struct Booking {\n        uint bookingNo;\n        string documentNo;\n        string receiver;\n        string locker;\n        string booker;\n        bool collected;\n    }\n        \n    mapping(uint => Booking) public bookingList;\n    uint public bookingCount;\n    \n    function registerNewBooking (\n        string memory _documentNo,\n        string memory _receiver, \n        string memory _locker,\n        string memory _booker\n\n    ) public {\n        bookingCount ++;\n        bookingList[bookingCount] = Booking(bookingCount, _documentNo,_receiver, _locker, _booker, false); \n    }\n    function collected(\n        uint _bookingNo,\n        string memory _documentNo, \n        string memory _receiver, \n        string memory _locker, \n        string memory _booker\n\n    ) public{\n\n    bookingList[_bookingNo] = Booking(_bookingNo, _documentNo,_receiver, _locker, _booker, true); \n}\n\n}\n",
  "sourcePath": "/Users/whaihoe/Documents/FYPY3/bookingSite/contracts/BookingContract.sol",
  "compiler": {
    "name": "solc",
    "version": "0.8.12+commit.f00d7308.Emscripten.clang"
  },
  "schemaVersion": "3.4.6",
  "updatedAt": "2022-03-21T06:48:38.757Z",
  "networkType": "ethereum",
  "devdoc": {
    "kind": "dev",
    "methods": {},
    "version": 1
  },
  "userdoc": {
    "kind": "user",
    "methods": {},
    "version": 1
  }
}